:060000000A128A11FC2F18
:100F0E00F000700883120313930083160313141C4E
:100F1E00912F922F8C2F080083120313141094100C
:100F2E00141194119416141283160313141394139C
:100F3E0087120716871108000A128A1193270A12C0
:100F4E008A11F40107308316031386008801831279
:100F5E0003138801061CB42FB52FC62F0130FF00D6
:100F6E007F08F4070230F3004530F200A930F1009B
:100F7E00F10BBF2FF20BBF2FF30BBF2FC62F831218
:100F8E000313861CCB2FCC2FDB2F0130F402023043
:100F9E00F3004530F200A930F100F10BD42FF20B23
:100FAE00D42FF30BD42FDB2F83120313061DE02F48
:100FBE00E12FF42F74080A128A1187270A128A1158
:100FCE000230F3004530F200A930F100F10BED2FA5
:100FDE00F20BED2FF30BED2FF42F74088312031386
:100FEE008800B12F0A128A11002883010A128A1171
:020FFE00A32F1F
:02400E00713F00
:00000001FF
