:060000000A128A11FC2F18
:100ED400043071020030031970020318722F732F4B
:100EE400942F70080139F200F20E831203131708CD
:100EF4007206EF397206970070080239F200F20E9A
:100F0400F20D17087206DF39720697007108F300B4
:100F14007008F2000310F30CF20C0310F30CF20C43
:100F2400720895000800831203131715971583168A
:100F3400031307117C3092008312031312149210CE
:100F44001215F601F701BE2F7708F1007608F000BC
:100F54000A128A116A270A128A110130F607031845
:100F6400F70A0030F7070330F5009730F400F40B6C
:100F7400B92FF50BB92FBE2F01307702F4300319C6
:100F84007602031CC62FC72FA62F8230F500DD3052
:100F9400F400F40BCB2FF50BCB2FD02FE92F7708D0
:100FA400F1007608F0000A128A116A270A128A11DF
:100FB4000130F6020030031CF703F7020330F5009A
:100FC4009730F400F40BE42FF50BE42FE92F7608A7
:100FD4007704031DEE2FEF2FD12F8230F500DD3083
:100FE400F400F40BF32FF50BF32FF82FA32F0A12B1
:0C0FF4008A11002883010A128A11952F2F
:02400E00713F00
:00000001FF
