:060000000A128A110C280F
:10000800FE00030EF0000A08F1000A128A115228B5
:100018000A128A110F28F20183010A128A112C2868
:1000280083120313141094101415941194161412B7
:1000380083160313141394138712071687159F1139
:100048001F159F101F1085168C150B178B1708008E
:100058000A128A1114200A128A11831603138601C0
:100068000A128A1140200A128A1183120313860089
:1000780034280A128A110C2883160313141C4528E5
:1000880046285128831203131308F200831603131A
:100098001410831203131413720808008312031335
:1000A8008C1D572858285D281308F200831603135F
:1000B8008C1171088A00700E8300FE0E7E0E0900F6
:02400E00713F00
:00000001FF
